{"contracts/Counter.sol":{"Counter":{"abi":[{"anonymous":false,"inputs":[{"indexed":false,"internalType":"uint256","name":"by","type":"uint256"}],"name":"Increment","type":"event"},{"inputs":[],"name":"inc","outputs":[],"stateMutability":"nonpayable","type":"function"},{"inputs":[{"internalType":"uint256","name":"by","type":"uint256"}],"name":"incBy","outputs":[],"stateMutability":"nonpayable","type":"function"},{"inputs":[],"name":"x","outputs":[{"internalType":"uint256","name":"","type":"uint256"}],"stateMutability":"view","type":"function"}],"evm":{"bytecode":{"linkReferences":{},"object":"608080604052346015576101f1908161001b8239f35b600080fdfe608080604052600436101561001357600080fd5b60003560e01c9081630c55699c146101a057508063371303c014610150576370119d061461004057600080fd5b3461014b57602036600319011261014b5760043580156100c757600054818101809111610098577f51af157c2eee40f68107a47a49c32fbbeb0a3c9e5cd37aa56e88e6be92368a8191602091600055604051908152a1005b7f4e487b7100000000000000000000000000000000000000000000000000000000600052601160045260246000fd5b60846040517f08c379a000000000000000000000000000000000000000000000000000000000815260206004820152602360248201527f696e6342793a20696e6372656d656e742073686f756c6420626520706f73697460448201527f69766500000000000000000000000000000000000000000000000000000000006064820152fd5b600080fd5b3461014b57600036600319011261014b576000546000198114610098576001016000557f51af157c2eee40f68107a47a49c32fbbeb0a3c9e5cd37aa56e88e6be92368a81602060405160018152a1005b3461014b57600036600319011261014b576020906000548152f3fea26469706673582212206bcde5f7ea044be21ce89292dbec2254e0c4c68071f91a4e92a4e050356a117a64736f6c634300081c0033","opcodes":"PUSH1 0x80 DUP1 PUSH1 0x40 MSTORE CALLVALUE PUSH1 0x15 JUMPI PUSH2 0x1F1 SWAP1 DUP2 PUSH2 0x1B DUP3 CODECOPY RETURN JUMPDEST PUSH1 0x0 DUP1 REVERT INVALID PUSH1 0x80 DUP1 PUSH1 0x40 MSTORE PUSH1 0x4 CALLDATASIZE LT ISZERO PUSH2 0x13 JUMPI PUSH1 0x0 DUP1 REVERT JUMPDEST PUSH1 0x0 CALLDATALOAD PUSH1 0xE0 SHR SWAP1 DUP2 PUSH4 0xC55699C EQ PUSH2 0x1A0 JUMPI POP DUP1 PUSH4 0x371303C0 EQ PUSH2 0x150 JUMPI PUSH4 0x70119D06 EQ PUSH2 0x40 JUMPI PUSH1 0x0 DUP1 REVERT JUMPDEST CALLVALUE PUSH2 0x14B JUMPI PUSH1 0x20 CALLDATASIZE PUSH1 0x3 NOT ADD SLT PUSH2 0x14B JUMPI PUSH1 0x4 CALLDATALOAD DUP1 ISZERO PUSH2 0xC7 JUMPI PUSH1 0x0 SLOAD DUP2 DUP2 ADD DUP1 SWAP2 GT PUSH2 0x98 JUMPI PUSH32 0x51AF157C2EEE40F68107A47A49C32FBBEB0A3C9E5CD37AA56E88E6BE92368A81 SWAP2 PUSH1 0x20 SWAP2 PUSH1 0x0 SSTORE PUSH1 0x40 MLOAD SWAP1 DUP2 MSTORE LOG1 STOP JUMPDEST PUSH32 0x4E487B7100000000000000000000000000000000000000000000000000000000 PUSH1 0x0 MSTORE PUSH1 0x11 PUSH1 0x4 MSTORE PUSH1 0x24 PUSH1 0x0 REVERT JUMPDEST PUSH1 0x84 PUSH1 0x40 MLOAD PUSH32 0x8C379A000000000000000000000000000000000000000000000000000000000 DUP2 MSTORE PUSH1 0x20 PUSH1 0x4 DUP3 ADD MSTORE PUSH1 0x23 PUSH1 0x24 DUP3 ADD MSTORE PUSH32 0x696E6342793A20696E6372656D656E742073686F756C6420626520706F736974 PUSH1 0x44 DUP3 ADD MSTORE PUSH32 0x6976650000000000000000000000000000000000000000000000000000000000 PUSH1 0x64 DUP3 ADD MSTORE REVERT JUMPDEST PUSH1 0x0 DUP1 REVERT JUMPDEST CALLVALUE PUSH2 0x14B JUMPI PUSH1 0x0 CALLDATASIZE PUSH1 0x3 NOT ADD SLT PUSH2 0x14B JUMPI PUSH1 0x0 SLOAD PUSH1 0x0 NOT DUP2 EQ PUSH2 0x98 JUMPI PUSH1 0x1 ADD PUSH1 0x0 SSTORE PUSH32 0x51AF157C2EEE40F68107A47A49C32FBBEB0A3C9E5CD37AA56E88E6BE92368A81 PUSH1 0x20 PUSH1 0x40 MLOAD PUSH1 0x1 DUP2 MSTORE LOG1 STOP JUMPDEST CALLVALUE PUSH2 0x14B JUMPI PUSH1 0x0 CALLDATASIZE PUSH1 0x3 NOT ADD SLT PUSH2 0x14B JUMPI PUSH1 0x20 SWAP1 PUSH1 0x0 SLOAD DUP2 MSTORE RETURN INVALID LOG2 PUSH5 0x6970667358 0x22 SLT KECCAK256 PUSH12 0xCDE5F7EA044BE21CE89292DB 0xEC 0x22 SLOAD 0xE0 0xC4 0xC6 DUP1 PUSH18 0xF91A4E92A4E050356A117A64736F6C634300 ADDMOD SHR STOP CALLER "},"methodIdentifiers":{"inc()":"371303c0","incBy(uint256)":"70119d06","x()":"0c55699c"}}}}}